:201FFA002000070020003034871C07E5000170726F6F66206F6620636F6E636570742062E3
:20201A0075696C640000000000270000000000000000000000000000000086739673F829AE
:20203A00BFF88CAF925F1F825FF829B2F88BA29EFAFEBED420A9CA207CD4034B55736167A2
:20205A00653A0979732066696C656E616D65205B66696C656E616D652E2E2E5D0D0A00C0F7
:20207A0020B2D420C6D420A9CA207CD42291F829BFF88EAFF8005FD4225EF829BFF894AF55
:20209A00F800BCF880ACF80AA8D422D6C020B24AFF20C220A92A0AD59EF901BEF829BFF81B
:2020BA008CAF4FB20FA26072B6F0A6D5D4225EF829BDF894AD4A5D1DFF21C320CF2A2DF8D6
:2020DA00005D1D8D739D73F820BDF81FADF829BFF894AFF804A7D40306CB211DD4034B43BA
:2020FA006F756C646E1B74206F70656E2066696C653A2000F829BFF894AFD40333D4238489
:20211A00C020B2F820BDF81FADF829BFF890AF4DB75F1F4DA75F1F4DB85F1F0DA85F2D2D7E
:20213A002D8773977388739873F800B8F800A8F800B7F800A7F820BDF81FADF800BCF8006B
:20215A00ACD4030F6072B8F0A86072B7F0A76072BFF0AFD4238BF8205F1FF8305F1FF8208B
:20217A005F1FF8305F5FD42291FF433297FFD23299F820BDF81FADD40312FF00D5F801A7BD
:20219A00F829BFF88FAF875FF829BFF88EAFF8005FF829BFF894AFF800BCF880ACF80AA820
:2021BA00D422D6C3218BD42291FF1532CBFF2E3A8BF829BFF890AFF804BCF800AC4FCA2193
:2021DA00F34FCA21F30FFF04C321F3F800BCF880AC4FC221F30FC2224A8C739C73F820BDBF
:2021FA00F81FADF82ABFF814AFD403098CCA220E9CC2224AF829BFF893AF8C520FF75F2FA9
:20221A009C520F775F2F0F7D005F2F0F7D005F6072BCF0ACF82ABFF814AFF80AA8D422D661
:20223A00C3218BFF063247D4226FC0218BC021CBD422BDFF06CA218BF820BDF81FADD4037C
:20225A0012FC00D5F829BFF894AFF8005F1F8FFF14CA2264D587739773F808A7F818D4FF9B
:20227A004E27873A76F808A7F808D4FF4E27873A826072B7F0A7D5D4FF06AEFF43329DFFDA
:20229A00D23A918ED5D4FF06AEFF06C222B5FF0FC222B9FF03C222B9C0229F8EFC00D58E47
:2022BA00FF00D5F804D4FF4ED4FF06FF063ABDF806D56072BCF0AC6072BFF0AF8F739F73FD
:2022DA008C739C739CC222E7F802C022E9F801D4FF4EF829BDF88EAD0DD4FF4E0DFDFFD474
:2022FA00FF4EF825B9F826BBF800B7F800A7F829BDF88FAD0DC2236B0FD4FF4E4F5297F3B0
:20231A00A9AB87EBF3E2B709A72C9C3A128C3A1297D4FF4E87D4FF4ED4229FA7FF06C2232F
:20233A0053FF0FCA23452888CA22CC6072BCF0AC6072BFF0AF87FF00D5F829BDF88EAD0DB5
:20235A00FC015D6072BCF0AC6072BFF0AF87FC00D54F5287F4A702D4FF4E2C9CCA236B8CC5
:20237A00CA236B87D4FF4EC02332D4034B0D0A00D58D739D73897399738873987387739771
:20239A0073F829BDF800AD8D739D73F80AAEF8005D1D2E8ECA23A86072BDF0ADF820A9F8C5
:2023BA000AAE8D739D730DFF05CB23C9FC085D1D2E8ECA23C088FEA8987EB8877EA7977ECF
:2023DA00B77EFEFEFE5D6072BDF0AD8D739D73F80AAE4D520DF6F6F6F6027EFA0F2D5D1DB7
:2023FA002E8ECA23EC6072BDF0AD2989CA23B9F829BDF800ADF80AA8F809B84DC2243F5200
:20241A00F800B802FC305F1F2888CA2415F8005F6072B7F0A76072B8F0A86072B9F0A96076
:0F243A0072BDF0ADD598C2241EFF01B8C0242298
:202500000021426384A5C6E708294A6B8CADCEEF31107352B594F7D639187B5ABD9CFFDECB
:2025200062432001E6C7A4856A4B2809EECFAC8D53721130D7F695B45B7A1938DFFE9DBCAB
:20254000C4E586A740610223CCED8EAF48690A2BF5D4B79671503312FDDCBF9E79583B1A8B
:20256000A687E4C522036041AE8FECCD2A0B684997B6D5F4133251709FBEDDFC1B3A59786B
:2025800088A9CAEB0C2D4E6F80A1C2E304254667B998FBDA3D1C7F5EB190F3D2351477564B
:2025A000EACBA8896E4F2C0DE2C3A08166472405DBFA99B85F7E1D3CD3F291B0577615342B
:2025C0004C6D0E2FC8E98AAB44650627C0E182A37D5C3F1EF9D8BB9A75543716F1D0B3920B
:2025E0002E0F6C4DAA8BE8C926076445A283E0C11F3E5D7C9BBAD9F81736557493B2D1F0EB
:2026000000102030405060708191A1B1C1D1E1F112023222524272629383B3A3D3C3F3E38A
:202620002434041464744454A5B58595E5F5C5D53626160676665646B7A79787F7E7D7C7EA
:202640004858687808182838C9D9E9F98999A9B95A4A7A6A1A0A3A2ADBCBFBEB9B8BBBAB4A
:202660006C7C4C5C2C3C0C1CEDFDCDDDADBD8D9D7E6E5E4E3E2E1E0EFFEFDFCFBFAF9F8FAA
:202680009181B1A1D1C1F1E110003020504070608393A3B3C3D3E3F302122232425262720A
:2026A000B5A59585F5E5D5C53424140474645444A7B78797E7F7C7D726360616667646566A
:2026C000D9C9F9E99989B9A95848786818083828CBDBEBFB8B9BABBB4A5A6A7A0A1A2A3ACA
:2026E000FDEDDDCDBDAD9D8D7C6C5C4C3C2C1C0CEFFFCFDFAFBF8F9F6E7E4E5E2E3E0E1E2A
:00000001FF
